{"project/contracts/PollingSystem.sol":{"PollingSystem":{"abi":[{"inputs":[{"internalType":"uint256","name":"pollId","type":"uint256"},{"internalType":"address","name":"voter","type":"address"}],"name":"AlreadyVoted","type":"error"},{"inputs":[],"name":"DeadlineNotInFuture","type":"error"},{"inputs":[],"name":"EmptyOptionString","type":"error"},{"inputs":[],"name":"EmptyTitle","type":"error"},{"inputs":[{"internalType":"uint256","name":"pollId","type":"uint256"},{"internalType":"uint256","name":"optionIndex","type":"uint256"},{"internalType":"uint256","name":"optionCount","type":"uint256"}],"name":"InvalidOptionIndex","type":"error"},{"inputs":[],"name":"InvalidOptionsCount","type":"error"},{"inputs":[{"internalType":"uint256","name":"pollId","type":"uint256"}],"name":"NoVotesCast","type":"error"},{"inputs":[{"internalType":"uint256","name":"pollId","type":"uint256"}],"name":"PollDoesNotExist","type":"error"},{"inputs":[],"name":"StringTooLong","type":"error"},{"inputs":[],"name":"TooManyOptions","type":"error"},{"inputs":[{"internalType":"uint256","name":"pollId","type":"uint256"},{"internalType":"uint256","name":"deadline","type":"uint256"},{"internalType":"uint256","name":"nowTs","type":"uint256"}],"name":"VotingClosed","type":"error"},{"inputs":[{"internalType":"uint256","name":"pollId","type":"uint256"},{"internalType":"uint256","name":"deadline","type":"uint256"},{"internalType":"uint256","name":"nowTs","type":"uint256"}],"name":"VotingStillOpen","type":"error"},{"anonymous":false,"inputs":[{"indexed":true,"internalType":"uint256","name":"pollId","type":"uint256"},{"indexed":true,"internalType":"address","name":"creator","type":"address"},{"indexed":false,"internalType":"string","name":"title","type":"string"},{"indexed":false,"internalType":"string[]","name":"options","type":"string[]"},{"indexed":false,"internalType":"uint256","name":"deadline","type":"uint256"}],"name":"PollCreated","type":"event"},{"anonymous":false,"inputs":[{"indexed":true,"internalType":"uint256","name":"pollId","type":"uint256"},{"indexed":true,"internalType":"address","name":"voter","type":"address"},{"indexed":true,"internalType":"uint256","name":"optionIndex","type":"uint256"}],"name":"VoteCast","type":"event"},{"anonymous":false,"inputs":[{"indexed":true,"internalType":"uint256","name":"pollId","type":"uint256"},{"indexed":false,"internalType":"uint256","name":"winningOptionIndex","type":"uint256"},{"indexed":false,"internalType":"string","name":"winningOption","type":"string"},{"indexed":false,"internalType":"uint256","name":"winningVoteCount","type":"uint256"},{"indexed":false,"internalType":"bool","name":"isTie","type":"bool"}],"name":"WinnerDeclared","type":"event"},{"inputs":[],"name":"MAX_OPTIONS","outputs":[{"internalType":"uint256","name":"","type":"uint256"}],"stateMutability":"view","type":"function"},{"inputs":[],"name":"MAX_STRING_LENGTH","outputs":[{"internalType":"uint256","name":"","type":"uint256"}],"stateMutability":"view","type":"function"},{"inputs":[{"internalType":"string","name":"title","type":"string"},{"internalType":"string[]","name":"options","type":"string[]"},{"internalType":"uint256","name":"votingDurationSeconds","type":"uint256"}],"name":"createPoll","outputs":[{"internalType":"uint256","name":"pollId","type":"uint256"}],"stateMutability":"nonpayable","type":"function"},{"inputs":[{"internalType":"uint256","name":"pollId","type":"uint256"}],"name":"declareWinner","outputs":[],"stateMutability":"nonpayable","type":"function"},{"inputs":[{"internalType":"uint256","name":"pollId","type":"uint256"}],"name":"getAllVoteCounts","outputs":[{"internalType":"uint256[]","name":"counts","type":"uint256[]"}],"stateMutability":"view","type":"function"},{"inputs":[{"internalType":"uint256","name":"pollId","type":"uint256"}],"name":"getPoll","outputs":[{"internalType":"string","name":"title","type":"string"},{"internalType":"string[]","name":"options","type":"string[]"},{"internalType":"uint256","name":"deadline","type":"uint256"},{"internalType":"address","name":"creator","type":"address"},{"internalType":"uint256","name":"totalVotes","type":"uint256"}],"stateMutability":"view","type":"function"},{"inputs":[{"internalType":"uint256","name":"pollId","type":"uint256"},{"internalType":"address","name":"voter","type":"address"}],"name":"getVoteChoice","outputs":[{"internalType":"uint256","name":"optionIndex","type":"uint256"}],"stateMutability":"view","type":"function"},{"inputs":[{"internalType":"uint256","name":"pollId","type":"uint256"},{"internalType":"uint256","name":"optionIndex","type":"uint256"}],"name":"getVoteCount","outputs":[{"internalType":"uint256","name":"voteCount","type":"uint256"}],"stateMutability":"view","type":"function"},{"inputs":[{"internalType":"uint256","name":"pollId","type":"uint256"}],"name":"getWinner","outputs":[{"internalType":"uint256","name":"winningOptionIndex","type":"uint256"},{"internalType":"string","name":"winningOption","type":"string"},{"internalType":"uint256","name":"winningVoteCount","type":"uint256"},{"internalType":"bool","name":"isTie","type":"bool"}],"stateMutability":"view","type":"function"},{"inputs":[{"internalType":"uint256","name":"pollId","type":"uint256"},{"internalType":"address","name":"voter","type":"address"}],"name":"hasAddressVoted","outputs":[{"internalType":"bool","name":"voted","type":"bool"}],"stateMutability":"view","type":"function"},{"inputs":[{"internalType":"uint256","name":"pollId","type":"uint256"}],"name":"isVotingOpen","outputs":[{"internalType":"bool","name":"open","type":"bool"}],"stateMutability":"view","type":"function"},{"inputs":[],"name":"pollCount","outputs":[{"internalType":"uint256","name":"","type":"uint256"}],"stateMutability":"view","type":"function"},{"inputs":[{"internalType":"uint256","name":"pollId","type":"uint256"},{"internalType":"uint256","name":"optionIndex","type":"uint256"}],"name":"vote","outputs":[],"stateMutability":"nonpayable","type":"function"}],"evm":{"bytecode":{"linkReferences":{},"object":"6080604052348015600e575f5ffd5b506113228061001c5f395ff3fe608060405234801561000f575f5ffd5b50600436106100ca575f3560e01c80634129b2c9116100885780639207891d116100635780639207891d146101b7578063b384abef146101c0578063de2e19a0146101d3578063f8c860f4146101e6575f5ffd5b80634129b2c91461016e578063736faeec146101915780637f318a5f146101a4575f5ffd5b8062c2943c146100ce578063074dbaa6146100e35780630da183d61461010b5780631a8cbcaa146101215780632a287d7f1461014557806334ccc5ea14610165575b5f5ffd5b6100e16100dc366004610cbf565b6101f9565b005b6100f66100f1366004610cbf565b6102e4565b60405190151581526020015b60405180910390f35b610113603281565b604051908152602001610102565b61013461012f366004610cbf565b610331565b604051610102959493929190610d04565b610158610153366004610cbf565b610506565b6040516101029190610d9e565b61011361010081565b61018161017c366004610cbf565b6105d9565b6040516101029493929190610de0565b6100f661019f366004610e10565b610792565b6101136101b2366004610e10565b6107f1565b61011360015481565b6100e16101ce366004610e49565b61084d565b6101136101e1366004610e49565b6109d8565b6101136101f4366004610eb1565b610a67565b80801580610208575060015481115b1561022e5760405163a86ecdd560e01b8152600481018290526024015b60405180910390fd5b604051634129b2c960e01b8152600481018390525f908190819081903090634129b2c9906024015f60405180830381865afa15801561026f573d5f5f3e3d5ffd5b505050506040513d5f823e601f3d908101601f191682016040526102969190810190610f78565b9350935093509350857f9dee034180951cc51fdd0fa82f440301d67533ee056ba3465ff37686301d12eb858585856040516102d49493929190610de0565b60405180910390a2505050505050565b5f818015806102f4575060015481115b156103155760405163a86ecdd560e01b815260048101829052602401610225565b5f83815260208190526040902060020154421091505b50919050565b6060805f808085801580610346575060015481115b156103675760405163a86ecdd560e01b815260048101829052602401610225565b5f87815260208190526040902060028101546003820154600483015483548493600185019390926001600160a01b039091169185906103a590611051565b80601f01602080910402602001604051908101604052809291908181526020018280546103d190611051565b801561041c5780601f106103f35761010080835404028352916020019161041c565b820191905f5260205f20905b8154815290600101906020018083116103ff57829003601f168201915b5050505050945083805480602002602001604051908101604052809291908181526020015f905b828210156104eb578382905f5260205f2001805461046090611051565b80601f016020809104026020016040519081016040528092919081815260200182805461048c90611051565b80156104d75780601f106104ae576101008083540402835291602001916104d7565b820191905f5260205f20905b8154815290600101906020018083116104ba57829003601f168201915b505050505081526020019060010190610443565b50505050935096509650965096509650505091939590929450565b606081801580610517575060015481115b156105385760405163a86ecdd560e01b815260048101829052602401610225565b5f83815260208190526040902060018101548067ffffffffffffffff81111561056357610563610f50565b60405190808252806020026020018201604052801561058c578160200160208202803683370190505b5093505f5b818110156105d0575f81815260058401602052604090205485518690839081106105bd576105bd611083565b6020908102919091010152600101610591565b50505050919050565b5f60608180848015806105ed575060015481115b1561060e5760405163a86ecdd560e01b815260048101829052602401610225565b5f8681526020819052604090206002810154421015610656576002810154604051633cc0fd5960e01b8152600481018990526024810191909152426044820152606401610225565b80600401545f0361067d5760405163793ff7a960e01b815260048101889052602401610225565b60018101545f8080805b848110156106d6575f818152600587016020526040902054848111156106b5578094508193505f92506106cd565b84811480156106c357505f81115b156106cd57600192505b50600101610687565b508199508460010182815481106106ef576106ef611083565b905f5260205f2001805461070290611051565b80601f016020809104026020016040519081016040528092919081815260200182805461072e90611051565b80156107795780601f1061075057610100808354040283529160200191610779565b820191905f5260205f20905b81548152906001019060200180831161075c57829003601f168201915b509d9f939e50959c50929a509098505050505050505050565b5f828015806107a2575060015481115b156107c35760405163a86ecdd560e01b815260048101829052602401610225565b50505f918252602082815260408084206001600160a01b039390931684526006909201905290205460ff1690565b5f82801580610801575060015481115b156108225760405163a86ecdd560e01b815260048101829052602401610225565b50505f918252602082815260408084206001600160a01b039390931684526007909201905290205490565b8180158061085c575060015481115b1561087d5760405163a86ecdd560e01b815260048101829052602401610225565b5f838152602081905260409020600281015442106108c4576002810154604051633e52f83560e01b8152600481018690526024810191909152426044820152606401610225565b335f90815260068201602052604090205460ff16156108ff576040516304f9da6360e01b815260048101859052336024820152604401610225565b6001810154831061093a576001810154604051633feeb02560e11b815260048101869052602481018590526044810191909152606401610225565b335f9081526006820160209081526040808320805460ff19166001908117909155600785018352818420879055868452600585019092528220805491929091610984908490611097565b925050819055506001816004015f82825461099f9190611097565b90915550506040518390339086907f2acce567deca3aabf56327adbb4524bd5318936eaefa69e3a5208ffda0cfec09905f90a450505050565b5f828015806109e8575060015481115b15610a095760405163a86ecdd560e01b815260048101829052602401610225565b5f84815260208190526040902060018101548410610a51576001810154604051633feeb02560e11b815260048101879052602481018690526044810191909152606401610225565b5f93845260050160205250506040902054919050565b5f848103610a88576040516352ddcdef60e11b815260040160405180910390fd5b610100851115610aab57604051631623655b60e31b815260040160405180910390fd5b826002811015610ace5760405163447074b560e01b815260040160405180910390fd5b6032811115610af057604051630de5482160e11b815260040160405180910390fd5b825f03610b1057604051639e8ed6ff60e01b815260040160405180910390fd5b5f610b1b8442611097565b90505f5b82811015610bbc57868682818110610b3957610b39611083565b9050602002810190610b4b91906110bc565b90505f03610b6c5760405163f895652960e01b815260040160405180910390fd5b610100878783818110610b8157610b81611083565b9050602002810190610b9391906110bc565b90501115610bb457604051631623655b60e31b815260040160405180910390fd5b600101610b1f565b506001805f828254610bce9190611097565b90915550506001545f81815260208190526040902090935080610bf2898b8361114b565b50600281018290556003810180546001600160a01b031916331790555f5b83811015610c685781600101888883818110610c2e57610c2e611083565b9050602002810190610c4091906110bc565b82546001810184555f938452602090932090920191610c5f918361114b565b50600101610c10565b50336001600160a01b0316847f88254c40b22bcd11c729024058aae8aef86a429f9cd6fda469b844b0fa0847658b8b8b8b88604051610cab95949392919061122d565b60405180910390a350505095945050505050565b5f60208284031215610ccf575f5ffd5b5035919050565b5f81518084528060208401602086015e5f602082860101526020601f19601f83011685010191505092915050565b60a081525f610d1660a0830188610cd6565b828103602084015280875180835260208301915060208160051b84010160208a015f5b83811015610d6b57601f19868403018552610d55838351610cd6565b6020958601959093509190910190600101610d39565b5050604086018990526001600160a01b03881660608701529350610d8e92505050565b8260808301529695505050505050565b602080825282518282018190525f918401906040840190835b81811015610dd5578351835260209384019390920191600101610db7565b509095945050505050565b848152608060208201525f610df86080830186610cd6565b60408301949094525090151560609091015292915050565b5f5f60408385031215610e21575f5ffd5b8235915060208301356001600160a01b0381168114610e3e575f5ffd5b809150509250929050565b5f5f60408385031215610e5a575f5ffd5b50508035926020909101359150565b5f5f83601f840112610e79575f5ffd5b50813567ffffffffffffffff811115610e90575f5ffd5b6020830191508360208260051b8501011115610eaa575f5ffd5b9250929050565b5f5f5f5f5f60608688031215610ec5575f5ffd5b853567ffffffffffffffff811115610edb575f5ffd5b8601601f81018813610eeb575f5ffd5b803567ffffffffffffffff811115610f01575f5ffd5b886020828401011115610f12575f5ffd5b60209182019650945086013567ffffffffffffffff811115610f32575f5ffd5b610f3e88828901610e69565b96999598509660400135949350505050565b634e487b7160e01b5f52604160045260245ffd5b80518015158114610f73575f5ffd5b919050565b5f5f5f5f60808587031215610f8b575f5ffd5b8451602086015190945067ffffffffffffffff811115610fa9575f5ffd5b8501601f81018713610fb9575f5ffd5b805167ffffffffffffffff811115610fd357610fd3610f50565b604051601f8201601f19908116603f0116810167ffffffffffffffff8111828210171561100257611002610f50565b604052818152828201602001891015611019575f5ffd5b8160208401602083015e5f9181016020019190915260408701519094509250611046905060608601610f64565b905092959194509250565b600181811c9082168061106557607f821691505b60208210810361032b57634e487b7160e01b5f52602260045260245ffd5b634e487b7160e01b5f52603260045260245ffd5b808201808211156110b657634e487b7160e01b5f52601160045260245ffd5b92915050565b5f5f8335601e198436030181126110d1575f5ffd5b83018035915067ffffffffffffffff8211156110eb575f5ffd5b602001915036819003821315610eaa575f5ffd5b601f82111561114657805f5260205f20601f840160051c810160208510156111245750805b601f840160051c820191505b81811015611143575f8155600101611130565b50505b505050565b67ffffffffffffffff83111561116357611163610f50565b611177836111718354611051565b836110ff565b5f601f8411600181146111a8575f85156111915750838201355b5f19600387901b1c1916600186901b178355611143565b5f83815260208120601f198716915b828110156111d757868501358255602094850194600190920191016111b7565b50868210156111f3575f1960f88860031b161c19848701351681555b505060018560011b0183555050505050565b81835281816020850137505f828201602090810191909152601f909101601f19169091010190565b606081525f611240606083018789611205565b82810360208401528085825260208201905060208660051b830101875f601e198a3603015b898210156112d357858403601f190185528235818112611283575f5ffd5b8b0160208101903567ffffffffffffffff81111561129f575f5ffd5b8036038213156112ad575f5ffd5b6112b8868284611205565b95505050602083019250602085019450600182019150611265565b505050809350505050826040830152969550505050505056fea2646970667358221220faab16d4583f07b0cad552fe2c31e09c5d8a9db7aebb700451b143563016521664736f6c634300081c0033","opcodes":"PUSH1 0x80 PUSH1 0x40 MSTORE CALLVALUE DUP1 ISZERO PUSH1 0xE JUMPI PUSH0 PUSH0 REVERT JUMPDEST POP PUSH2 0x1322 DUP1 PUSH2 0x1C PUSH0 CODECOPY PUSH0 RETURN INVALID PUSH1 0x80 PUSH1 0x40 MSTORE CALLVALUE DUP1 ISZERO PUSH2 0xF JUMPI PUSH0 PUSH0 REVERT JUMPDEST POP PUSH1 0x4 CALLDATASIZE LT PUSH2 0xCA JUMPI PUSH0 CALLDATALOAD PUSH1 0xE0 SHR DUP1 PUSH4 0x4129B2C9 GT PUSH2 0x88 JUMPI DUP1 PUSH4 0x9207891D GT PUSH2 0x63 JUMPI DUP1 PUSH4 0x9207891D EQ PUSH2 0x1B7 JUMPI DUP1 PUSH4 0xB384ABEF EQ PUSH2 0x1C0 JUMPI DUP1 PUSH4 0xDE2E19A0 EQ PUSH2 0x1D3 JUMPI DUP1 PUSH4 0xF8C860F4 EQ PUSH2 0x1E6 JUMPI PUSH0 PUSH0 REVERT JUMPDEST DUP1 PUSH4 0x4129B2C9 EQ PUSH2 0x16E JUMPI DUP1 PUSH4 0x736FAEEC EQ PUSH2 0x191 JUMPI DUP1 PUSH4 0x7F318A5F EQ PUSH2 0x1A4 JUMPI PUSH0 PUSH0 REVERT JUMPDEST DUP1 PUSH3 0xC2943C EQ PUSH2 0xCE JUMPI DUP1 PUSH4 0x74DBAA6 EQ PUSH2 0xE3 JUMPI DUP1 PUSH4 0xDA183D6 EQ PUSH2 0x10B JUMPI DUP1 PUSH4 0x1A8CBCAA EQ PUSH2 0x121 JUMPI DUP1 PUSH4 0x2A287D7F EQ PUSH2 0x145 JUMPI DUP1 PUSH4 0x34CCC5EA EQ PUSH2 0x165 JUMPI JUMPDEST PUSH0 PUSH0 REVERT JUMPDEST PUSH2 0xE1 PUSH2 0xDC CALLDATASIZE PUSH1 0x4 PUSH2 0xCBF JUMP JUMPDEST PUSH2 0x1F9 JUMP JUMPDEST STOP JUMPDEST PUSH2 0xF6 PUSH2 0xF1 CALLDATASIZE PUSH1 0x4 PUSH2 0xCBF JUMP JUMPDEST PUSH2 0x2E4 JUMP JUMPDEST PUSH1 0x40 MLOAD SWAP1 ISZERO ISZERO DUP2 MSTORE PUSH1 0x20 ADD JUMPDEST PUSH1 0x40 MLOAD DUP1 SWAP2 SUB SWAP1 RETURN JUMPDEST PUSH2 0x113 PUSH1 0x32 DUP2 JUMP JUMPDEST PUSH1 0x40 MLOAD SWAP1 DUP2 MSTORE PUSH1 0x20 ADD PUSH2 0x102 JUMP JUMPDEST PUSH2 0x134 PUSH2 0x12F CALLDATASIZE PUSH1 0x4 PUSH2 0xCBF JUMP JUMPDEST PUSH2 0x331 JUMP JUMPDEST PUSH1 0x40 MLOAD PUSH2 0x102 SWAP6 SWAP5 SWAP4 SWAP3 SWAP2 SWAP1 PUSH2 0xD04 JUMP JUMPDEST PUSH2 0x158 PUSH2 0x153 CALLDATASIZE PUSH1 0x4 PUSH2 0xCBF JUMP JUMPDEST PUSH2 0x506 JUMP JUMPDEST PUSH1 0x40 MLOAD PUSH2 0x102 SWAP2 SWAP1 PUSH2 0xD9E JUMP JUMPDEST PUSH2 0x113 PUSH2 0x100 DUP2 JUMP JUMPDEST PUSH2 0x181 PUSH2 0x17C CALLDATASIZE PUSH1 0x4 PUSH2 0xCBF JUMP JUMPDEST PUSH2 0x5D9 JUMP JUMPDEST PUSH1 0x40 MLOAD PUSH2 0x102 SWAP5 SWAP4 SWAP3 SWAP2 SWAP1 PUSH2 0xDE0 JUMP JUMPDEST PUSH2 0xF6 PUSH2 0x19F CALLDATASIZE PUSH1 0x4 PUSH2 0xE10 JUMP JUMPDEST PUSH2 0x792 JUMP JUMPDEST PUSH2 0x113 PUSH2 0x1B2 CALLDATASIZE PUSH1 0x4 PUSH2 0xE10 JUMP JUMPDEST PUSH2 0x7F1 JUMP JUMPDEST PUSH2 0x113 PUSH1 0x1 SLOAD DUP2 JUMP JUMPDEST PUSH2 0xE1 PUSH2 0x1CE CALLDATASIZE PUSH1 0x4 PUSH2 0xE49 JUMP JUMPDEST PUSH2 0x84D JUMP JUMPDEST PUSH2 0x113 PUSH2 0x1E1 CALLDATASIZE PUSH1 0x4 PUSH2 0xE49 JUMP JUMPDEST PUSH2 0x9D8 JUMP JUMPDEST PUSH2 0x113 PUSH2 0x1F4 CALLDATASIZE PUSH1 0x4 PUSH2 0xEB1 JUMP JUMPDEST PUSH2 0xA67 JUMP JUMPDEST DUP1 DUP1 ISZERO DUP1 PUSH2 0x208 JUMPI POP PUSH1 0x1 SLOAD DUP2 GT JUMPDEST ISZERO PUSH2 0x22E JUMPI PUSH1 0x40 MLOAD PUSH4 0xA86ECDD5 PUSH1 0xE0 SHL DUP2 MSTORE PUSH1 0x4 DUP2 ADD DUP3 SWAP1 MSTORE PUSH1 0x24 ADD JUMPDEST PUSH1 0x40 MLOAD DUP1 SWAP2 SUB SWAP1 REVERT JUMPDEST PUSH1 0x40 MLOAD PUSH4 0x4129B2C9 PUSH1 0xE0 SHL DUP2 MSTORE PUSH1 0x4 DUP2 ADD DUP4 SWAP1 MSTORE PUSH0 SWAP1 DUP2 SWAP1 DUP2 SWAP1 DUP2 SWAP1 ADDRESS SWAP1 PUSH4 0x4129B2C9 SWAP1 PUSH1 0x24 ADD PUSH0 PUSH1 0x40 MLOAD DUP1 DUP4 SUB DUP2 DUP7 GAS STATICCALL ISZERO DUP1 ISZERO PUSH2 0x26F JUMPI RETURNDATASIZE PUSH0 PUSH0 RETURNDATACOPY RETURNDATASIZE PUSH0 REVERT JUMPDEST POP POP POP POP PUSH1 0x40 MLOAD RETURNDATASIZE PUSH0 DUP3 RETURNDATACOPY PUSH1 0x1F RETURNDATASIZE SWAP1 DUP2 ADD PUSH1 0x1F NOT AND DUP3 ADD PUSH1 0x40 MSTORE PUSH2 0x296 SWAP2 SWAP1 DUP2 ADD SWAP1 PUSH2 0xF78 JUMP JUMPDEST SWAP4 POP SWAP4 POP SWAP4 POP SWAP4 POP DUP6 PUSH32 0x9DEE034180951CC51FDD0FA82F440301D67533EE056BA3465FF37686301D12EB DUP6 DUP6 DUP6 DUP6 PUSH1 0x40 MLOAD PUSH2 0x2D4 SWAP5 SWAP4 SWAP3 SWAP2 SWAP1 PUSH2 0xDE0 JUMP JUMPDEST PUSH1 0x40 MLOAD DUP1 SWAP2 SUB SWAP1 LOG2 POP POP POP POP POP POP JUMP JUMPDEST PUSH0 DUP2 DUP1 ISZERO DUP1 PUSH2 0x2F4 JUMPI POP PUSH1 0x1 SLOAD DUP2 GT JUMPDEST ISZERO PUSH2 0x315 JUMPI PUSH1 0x40 MLOAD PUSH4 0xA86ECDD5 PUSH1 0xE0 SHL DUP2 MSTORE PUSH1 0x4 DUP2 ADD DUP3 SWAP1 MSTORE PUSH1 0x24 ADD PUSH2 0x225 JUMP JUMPDEST PUSH0 DUP4 DUP2 MSTORE PUSH1 0x20 DUP2 SWAP1 MSTORE PUSH1 0x40 SWAP1 KECCAK256 PUSH1 0x2 ADD SLOAD TIMESTAMP LT SWAP2 POP JUMPDEST POP SWAP2 SWAP1 POP JUMP JUMPDEST PUSH1 0x60 DUP1 PUSH0 DUP1 DUP1 DUP6 DUP1 ISZERO DUP1 PUSH2 0x346 JUMPI POP PUSH1 0x1 SLOAD DUP2 GT JUMPDEST ISZERO PUSH2 0x367 JUMPI PUSH1 0x40 MLOAD PUSH4 0xA86ECDD5 PUSH1 0xE0 SHL DUP2 MSTORE PUSH1 0x4 DUP2 ADD DUP3 SWAP1 MSTORE PUSH1 0x24 ADD PUSH2 0x225 JUMP JUMPDEST PUSH0 DUP8 DUP2 MSTORE PUSH1 0x20 DUP2 SWAP1 MSTORE PUSH1 0x40 SWAP1 KECCAK256 PUSH1 0x2 DUP2 ADD SLOAD PUSH1 0x3 DUP3 ADD SLOAD PUSH1 0x4 DUP4 ADD SLOAD DUP4 SLOAD DUP5 SWAP4 PUSH1 0x1 DUP6 ADD SWAP4 SWAP1 SWAP3 PUSH1 0x1 PUSH1 0x1 PUSH1 0xA0 SHL SUB SWAP1 SWAP2 AND SWAP2 DUP6 SWAP1 PUSH2 0x3A5 SWAP1 PUSH2 0x1051 JUMP JUMPDEST DUP1 PUSH1 0x1F ADD PUSH1 0x20 DUP1 SWAP2 DIV MUL PUSH1 0x20 ADD PUSH1 0x40 MLOAD SWAP1 DUP2 ADD PUSH1 0x40 MSTORE DUP1 SWAP3 SWAP2 SWAP1 DUP2 DUP2 MSTORE PUSH1 0x20 ADD DUP3 DUP1 SLOAD PUSH2 0x3D1 SWAP1 PUSH2 0x1051 JUMP JUMPDEST DUP1 ISZERO PUSH2 0x41C JUMPI DUP1 PUSH1 0x1F LT PUSH2 0x3F3 JUMPI PUSH2 0x100 DUP1 DUP4 SLOAD DIV MUL DUP4 MSTORE SWAP2 PUSH1 0x20 ADD SWAP2 PUSH2 0x41C JUMP JUMPDEST DUP3 ADD SWAP2 SWAP1 PUSH0 MSTORE PUSH1 0x20 PUSH0 KECCAK256 SWAP1 JUMPDEST DUP2 SLOAD DUP2 MSTORE SWAP1 PUSH1 0x1 ADD SWAP1 PUSH1 0x20 ADD DUP1 DUP4 GT PUSH2 0x3FF JUMPI DUP3 SWAP1 SUB PUSH1 0x1F AND DUP3 ADD SWAP2 JUMPDEST POP POP POP POP POP SWAP5 POP DUP4 DUP1 SLOAD DUP1 PUSH1 0x20 MUL PUSH1 0x20 ADD PUSH1 0x40 MLOAD SWAP1 DUP2 ADD PUSH1 0x40 MSTORE DUP1 SWAP3 SWAP2 SWAP1 DUP2 DUP2 MSTORE PUSH1 0x20 ADD PUSH0 SWAP1 JUMPDEST DUP3 DUP3 LT ISZERO PUSH2 0x4EB JUMPI DUP4 DUP3 SWAP1 PUSH0 MSTORE PUSH1 0x20 PUSH0 KECCAK256 ADD DUP1 SLOAD PUSH2 0x460 SWAP1 PUSH2 0x1051 JUMP JUMPDEST DUP1 PUSH1 0x1F ADD PUSH1 0x20 DUP1 SWAP2 DIV MUL PUSH1 0x20 ADD PUSH1 0x40 MLOAD SWAP1 DUP2 ADD PUSH1 0x40 MSTORE DUP1 SWAP3 SWAP2 SWAP1 DUP2 DUP2 MSTORE PUSH1 0x20 ADD DUP3 DUP1 SLOAD PUSH2 0x48C SWAP1 PUSH2 0x1051 JUMP JUMPDEST DUP1 ISZERO PUSH2 0x4D7 JUMPI DUP1 PUSH1 0x1F LT PUSH2 0x4AE JUMPI PUSH2 0x100 DUP1 DUP4 SLOAD DIV MUL DUP4 MSTORE SWAP2 PUSH1 0x20 ADD SWAP2 PUSH2 0x4D7 JUMP JUMPDEST DUP3 ADD SWAP2 SWAP1 PUSH0 MSTORE PUSH1 0x20 PUSH0 KECCAK256 SWAP1 JUMPDEST DUP2 SLOAD DUP2 MSTORE SWAP1 PUSH1 0x1 ADD SWAP1 PUSH1 0x20 ADD DUP1 DUP4 GT PUSH2 0x4BA JUMPI DUP3 SWAP1 SUB PUSH1 0x1F AND DUP3 ADD SWAP2 JUMPDEST POP POP POP POP POP DUP2 MSTORE PUSH1 0x20 ADD SWAP1 PUSH1 0x1 ADD SWAP1 PUSH2 0x443 JUMP JUMPDEST POP POP POP POP SWAP4 POP SWAP7 POP SWAP7 POP SWAP7 POP SWAP7 POP SWAP7 POP POP POP SWAP2 SWAP4 SWAP6 SWAP1 SWAP3 SWAP5 POP JUMP JUMPDEST PUSH1 0x60 DUP2 DUP1 ISZERO DUP1 PUSH2 0x517 JUMPI POP PUSH1 0x1 SLOAD DUP2 GT JUMPDEST ISZERO PUSH2 0x538 JUMPI PUSH1 0x40 MLOAD PUSH4 0xA86ECDD5 PUSH1 0xE0 SHL DUP2 MSTORE PUSH1 0x4 DUP2 ADD DUP3 SWAP1 MSTORE PUSH1 0x24 ADD PUSH2 0x225 JUMP JUMPDEST PUSH0 DUP4 DUP2 MSTORE PUSH1 0x20 DUP2 SWAP1 MSTORE PUSH1 0x40 SWAP1 KECCAK256 PUSH1 0x1 DUP2 ADD SLOAD DUP1 PUSH8 0xFFFFFFFFFFFFFFFF DUP2 GT ISZERO PUSH2 0x563 JUMPI PUSH2 0x563 PUSH2 0xF50 JUMP JUMPDEST PUSH1 0x40 MLOAD SWAP1 DUP1 DUP3 MSTORE DUP1 PUSH1 0x20 MUL PUSH1 0x20 ADD DUP3 ADD PUSH1 0x40 MSTORE DUP1 ISZERO PUSH2 0x58C JUMPI DUP2 PUSH1 0x20 ADD PUSH1 0x20 DUP3 MUL DUP1 CALLDATASIZE DUP4 CALLDATACOPY ADD SWAP1 POP JUMPDEST POP SWAP4 POP PUSH0 JUMPDEST DUP2 DUP2 LT ISZERO PUSH2 0x5D0 JUMPI PUSH0 DUP2 DUP2 MSTORE PUSH1 0x5 DUP5 ADD PUSH1 0x20 MSTORE PUSH1 0x40 SWAP1 KECCAK256 SLOAD DUP6 MLOAD DUP7 SWAP1 DUP4 SWAP1 DUP2 LT PUSH2 0x5BD JUMPI PUSH2 0x5BD PUSH2 0x1083 JUMP JUMPDEST PUSH1 0x20 SWAP1 DUP2 MUL SWAP2 SWAP1 SWAP2 ADD ADD MSTORE PUSH1 0x1 ADD PUSH2 0x591 JUMP JUMPDEST POP POP POP POP SWAP2 SWAP1 POP JUMP JUMPDEST PUSH0 PUSH1 0x60 DUP2 DUP1 DUP5 DUP1 ISZERO DUP1 PUSH2 0x5ED JUMPI POP PUSH1 0x1 SLOAD DUP2 GT JUMPDEST ISZERO PUSH2 0x60E JUMPI PUSH1 0x40 MLOAD PUSH4 0xA86ECDD5 PUSH1 0xE0 SHL DUP2 MSTORE PUSH1 0x4 DUP2 ADD DUP3 SWAP1 MSTORE PUSH1 0x24 ADD PUSH2 0x225 JUMP JUMPDEST PUSH0 DUP7 DUP2 MSTORE PUSH1 0x20 DUP2 SWAP1 MSTORE PUSH1 0x40 SWAP1 KECCAK256 PUSH1 0x2 DUP2 ADD SLOAD TIMESTAMP LT ISZERO PUSH2 0x656 JUMPI PUSH1 0x2 DUP2 ADD SLOAD PUSH1 0x40 MLOAD PUSH4 0x3CC0FD59 PUSH1 0xE0 SHL DUP2 MSTORE PUSH1 0x4 DUP2 ADD DUP10 SWAP1 MSTORE PUSH1 0x24 DUP2 ADD SWAP2 SWAP1 SWAP2 MSTORE TIMESTAMP PUSH1 0x44 DUP3 ADD MSTORE PUSH1 0x64 ADD PUSH2 0x225 JUMP JUMPDEST DUP1 PUSH1 0x4 ADD SLOAD PUSH0 SUB PUSH2 0x67D JUMPI PUSH1 0x40 MLOAD PUSH4 0x793FF7A9 PUSH1 0xE0 SHL DUP2 MSTORE PUSH1 0x4 DUP2 ADD DUP9 SWAP1 MSTORE PUSH1 0x24 ADD PUSH2 0x225 JUMP JUMPDEST PUSH1 0x1 DUP2 ADD SLOAD PUSH0 DUP1 DUP1 DUP1 JUMPDEST DUP5 DUP2 LT ISZERO PUSH2 0x6D6 JUMPI PUSH0 DUP2 DUP2 MSTORE PUSH1 0x5 DUP8 ADD PUSH1 0x20 MSTORE PUSH1 0x40 SWAP1 KECCAK256 SLOAD DUP5 DUP2 GT ISZERO PUSH2 0x6B5 JUMPI DUP1 SWAP5 POP DUP2 SWAP4 POP PUSH0 SWAP3 POP PUSH2 0x6CD JUMP JUMPDEST DUP5 DUP2 EQ DUP1 ISZERO PUSH2 0x6C3 JUMPI POP PUSH0 DUP2 GT JUMPDEST ISZERO PUSH2 0x6CD JUMPI PUSH1 0x1 SWAP3 POP JUMPDEST POP PUSH1 0x1 ADD PUSH2 0x687 JUMP JUMPDEST POP DUP2 SWAP10 POP DUP5 PUSH1 0x1 ADD DUP3 DUP2 SLOAD DUP2 LT PUSH2 0x6EF JUMPI PUSH2 0x6EF PUSH2 0x1083 JUMP JUMPDEST SWAP1 PUSH0 MSTORE PUSH1 0x20 PUSH0 KECCAK256 ADD DUP1 SLOAD PUSH2 0x702 SWAP1 PUSH2 0x1051 JUMP JUMPDEST DUP1 PUSH1 0x1F ADD PUSH1 0x20 DUP1 SWAP2 DIV MUL PUSH1 0x20 ADD PUSH1 0x40 MLOAD SWAP1 DUP2 ADD PUSH1 0x40 MSTORE DUP1 SWAP3 SWAP2 SWAP1 DUP2 DUP2 MSTORE PUSH1 0x20 ADD DUP3 DUP1 SLOAD PUSH2 0x72E SWAP1 PUSH2 0x1051 JUMP JUMPDEST DUP1 ISZERO PUSH2 0x779 JUMPI DUP1 PUSH1 0x1F LT PUSH2 0x750 JUMPI PUSH2 0x100 DUP1 DUP4 SLOAD DIV MUL DUP4 MSTORE SWAP2 PUSH1 0x20 ADD SWAP2 PUSH2 0x779 JUMP JUMPDEST DUP3 ADD SWAP2 SWAP1 PUSH0 MSTORE PUSH1 0x20 PUSH0 KECCAK256 SWAP1 JUMPDEST DUP2 SLOAD DUP2 MSTORE SWAP1 PUSH1 0x1 ADD SWAP1 PUSH1 0x20 ADD DUP1 DUP4 GT PUSH2 0x75C JUMPI DUP3 SWAP1 SUB PUSH1 0x1F AND DUP3 ADD SWAP2 JUMPDEST POP SWAP14 SWAP16 SWAP4 SWAP15 POP SWAP6 SWAP13 POP SWAP3 SWAP11 POP SWAP1 SWAP9 POP POP POP POP POP POP POP POP POP JUMP JUMPDEST PUSH0 DUP3 DUP1 ISZERO DUP1 PUSH2 0x7A2 JUMPI POP PUSH1 0x1 SLOAD DUP2 GT JUMPDEST ISZERO PUSH2 0x7C3 JUMPI PUSH1 0x40 MLOAD PUSH4 0xA86ECDD5 PUSH1 0xE0 SHL DUP2 MSTORE PUSH1 0x4 DUP2 ADD DUP3 SWAP1 MSTORE PUSH1 0x24 ADD PUSH2 0x225 JUMP JUMPDEST POP POP PUSH0 SWAP2 DUP3 MSTORE PUSH1 0x20 DUP3 DUP2 MSTORE PUSH1 0x40 DUP1 DUP5 KECCAK256 PUSH1 0x1 PUSH1 0x1 PUSH1 0xA0 SHL SUB SWAP4 SWAP1 SWAP4 AND DUP5 MSTORE PUSH1 0x6 SWAP1 SWAP3 ADD SWAP1 MSTORE SWAP1 KECCAK256 SLOAD PUSH1 0xFF AND SWAP1 JUMP JUMPDEST PUSH0 DUP3 DUP1 ISZERO DUP1 PUSH2 0x801 JUMPI POP PUSH1 0x1 SLOAD DUP2 GT JUMPDEST ISZERO PUSH2 0x822 JUMPI PUSH1 0x40 MLOAD PUSH4 0xA86ECDD5 PUSH1 0xE0 SHL DUP2 MSTORE PUSH1 0x4 DUP2 ADD DUP3 SWAP1 MSTORE PUSH1 0x24 ADD PUSH2 0x225 JUMP JUMPDEST POP POP PUSH0 SWAP2 DUP3 MSTORE PUSH1 0x20 DUP3 DUP2 MSTORE PUSH1 0x40 DUP1 DUP5 KECCAK256 PUSH1 0x1 PUSH1 0x1 PUSH1 0xA0 SHL SUB SWAP4 SWAP1 SWAP4 AND DUP5 MSTORE PUSH1 0x7 SWAP1 SWAP3 ADD SWAP1 MSTORE SWAP1 KECCAK256 SLOAD SWAP1 JUMP JUMPDEST DUP2 DUP1 ISZERO DUP1 PUSH2 0x85C JUMPI POP PUSH1 0x1 SLOAD DUP2 GT JUMPDEST ISZERO PUSH2 0x87D JUMPI PUSH1 0x40 MLOAD PUSH4 0xA86ECDD5 PUSH1 0xE0 SHL DUP2 MSTORE PUSH1 0x4 DUP2 ADD DUP3 SWAP1 MSTORE PUSH1 0x24 ADD PUSH2 0x225 JUMP JUMPDEST PUSH0 DUP4 DUP2 MSTORE PUSH1 0x20 DUP2 SWAP1 MSTORE PUSH1 0x40 SWAP1 KECCAK256 PUSH1 0x2 DUP2 ADD SLOAD TIMESTAMP LT PUSH2 0x8C4 JUMPI PUSH1 0x2 DUP2 ADD SLOAD PUSH1 0x40 MLOAD PUSH4 0x3E52F835 PUSH1 0xE0 SHL DUP2 MSTORE PUSH1 0x4 DUP2 ADD DUP7 SWAP1 MSTORE PUSH1 0x24 DUP2 ADD SWAP2 SWAP1 SWAP2 MSTORE TIMESTAMP PUSH1 0x44 DUP3 ADD MSTORE PUSH1 0x64 ADD PUSH2 0x225 JUMP JUMPDEST CALLER PUSH0 SWAP1 DUP2 MSTORE PUSH1 0x6 DUP3 ADD PUSH1 0x20 MSTORE PUSH1 0x40 SWAP1 KECCAK256 SLOAD PUSH1 0xFF AND ISZERO PUSH2 0x8FF JUMPI PUSH1 0x40 MLOAD PUSH4 0x4F9DA63 PUSH1 0xE0 SHL DUP2 MSTORE PUSH1 0x4 DUP2 ADD DUP6 SWAP1 MSTORE CALLER PUSH1 0x24 DUP3 ADD MSTORE PUSH1 0x44 ADD PUSH2 0x225 JUMP JUMPDEST PUSH1 0x1 DUP2 ADD SLOAD DUP4 LT PUSH2 0x93A JUMPI PUSH1 0x1 DUP2 ADD SLOAD PUSH1 0x40 MLOAD PUSH4 0x3FEEB025 PUSH1 0xE1 SHL DUP2 MSTORE PUSH1 0x4 DUP2 ADD DUP7 SWAP1 MSTORE PUSH1 0x24 DUP2 ADD DUP6 SWAP1 MSTORE PUSH1 0x44 DUP2 ADD SWAP2 SWAP1 SWAP2 MSTORE PUSH1 0x64 ADD PUSH2 0x225 JUMP JUMPDEST CALLER PUSH0 SWAP1 DUP2 MSTORE PUSH1 0x6 DUP3 ADD PUSH1 0x20 SWAP1 DUP2 MSTORE PUSH1 0x40 DUP1 DUP4 KECCAK256 DUP1 SLOAD PUSH1 0xFF NOT AND PUSH1 0x1 SWAP1 DUP2 OR SWAP1 SWAP2 SSTORE PUSH1 0x7 DUP6 ADD DUP4 MSTORE DUP2 DUP5 KECCAK256 DUP8 SWAP1 SSTORE DUP7 DUP5 MSTORE PUSH1 0x5 DUP6 ADD SWAP1 SWAP3 MSTORE DUP3 KECCAK256 DUP1 SLOAD SWAP2 SWAP3 SWAP1 SWAP2 PUSH2 0x984 SWAP1 DUP5 SWAP1 PUSH2 0x1097 JUMP JUMPDEST SWAP3 POP POP DUP2 SWAP1 SSTORE POP PUSH1 0x1 DUP2 PUSH1 0x4 ADD PUSH0 DUP3 DUP3 SLOAD PUSH2 0x99F SWAP2 SWAP1 PUSH2 0x1097 JUMP JUMPDEST SWAP1 SWAP2 SSTORE POP POP PUSH1 0x40 MLOAD DUP4 SWAP1 CALLER SWAP1 DUP7 SWAP1 PUSH32 0x2ACCE567DECA3AABF56327ADBB4524BD5318936EAEFA69E3A5208FFDA0CFEC09 SWAP1 PUSH0 SWAP1 LOG4 POP POP POP POP JUMP JUMPDEST PUSH0 DUP3 DUP1 ISZERO DUP1 PUSH2 0x9E8 JUMPI POP PUSH1 0x1 SLOAD DUP2 GT JUMPDEST ISZERO PUSH2 0xA09 JUMPI PUSH1 0x40 MLOAD PUSH4 0xA86ECDD5 PUSH1 0xE0 SHL DUP2 MSTORE PUSH1 0x4 DUP2 ADD DUP3 SWAP1 MSTORE PUSH1 0x24 ADD PUSH2 0x225 JUMP JUMPDEST PUSH0 DUP5 DUP2 MSTORE PUSH1 0x20 DUP2 SWAP1 MSTORE PUSH1 0x40 SWAP1 KECCAK256 PUSH1 0x1 DUP2 ADD SLOAD DUP5 LT PUSH2 0xA51 JUMPI PUSH1 0x1 DUP2 ADD SLOAD PUSH1 0x40 MLOAD PUSH4 0x3FEEB025 PUSH1 0xE1 SHL DUP2 MSTORE PUSH1 0x4 DUP2 ADD DUP8 SWAP1 MSTORE PUSH1 0x24 DUP2 ADD DUP7 SWAP1 MSTORE PUSH1 0x44 DUP2 ADD SWAP2 SWAP1 SWAP2 MSTORE PUSH1 0x64 ADD PUSH2 0x225 JUMP JUMPDEST PUSH0 SWAP4 DUP5 MSTORE PUSH1 0x5 ADD PUSH1 0x20 MSTORE POP POP PUSH1 0x40 SWAP1 KECCAK256 SLOAD SWAP2 SWAP1 POP JUMP JUMPDEST PUSH0 DUP5 DUP2 SUB PUSH2 0xA88 JUMPI PUSH1 0x40 MLOAD PUSH4 0x52DDCDEF PUSH1 0xE1 SHL DUP2 MSTORE PUSH1 0x4 ADD PUSH1 0x40 MLOAD DUP1 SWAP2 SUB SWAP1 REVERT JUMPDEST PUSH2 0x100 DUP6 GT ISZERO PUSH2 0xAAB JUMPI PUSH1 0x40 MLOAD PUSH4 0x1623655B PUSH1 0xE3 SHL DUP2 MSTORE PUSH1 0x4 ADD PUSH1 0x40 MLOAD DUP1 SWAP2 SUB SWAP1 REVERT JUMPDEST DUP3 PUSH1 0x2 DUP2 LT ISZERO PUSH2 0xACE JUMPI PUSH1 0x40 MLOAD PUSH4 0x447074B5 PUSH1 0xE0 SHL DUP2 MSTORE PUSH1 0x4 ADD PUSH1 0x40 MLOAD DUP1 SWAP2 SUB SWAP1 REVERT JUMPDEST PUSH1 0x32 DUP2 GT ISZERO PUSH2 0xAF0 JUMPI PUSH1 0x40 MLOAD PUSH4 0xDE54821 PUSH1 0xE1 SHL DUP2 MSTORE PUSH1 0x4 ADD PUSH1 0x40 MLOAD DUP1 SWAP2 SUB SWAP1 REVERT JUMPDEST DUP3 PUSH0 SUB PUSH2 0xB10 JUMPI PUSH1 0x40 MLOAD PUSH4 0x9E8ED6FF PUSH1 0xE0 SHL DUP2 MSTORE PUSH1 0x4 ADD PUSH1 0x40 MLOAD DUP1 SWAP2 SUB SWAP1 REVERT JUMPDEST PUSH0 PUSH2 0xB1B DUP5 TIMESTAMP PUSH2 0x1097 JUMP JUMPDEST SWAP1 POP PUSH0 JUMPDEST DUP3 DUP2 LT ISZERO PUSH2 0xBBC JUMPI DUP7 DUP7 DUP3 DUP2 DUP2 LT PUSH2 0xB39 JUMPI PUSH2 0xB39 PUSH2 0x1083 JUMP JUMPDEST SWAP1 POP PUSH1 0x20 MUL DUP2 ADD SWAP1 PUSH2 0xB4B SWAP2 SWAP1 PUSH2 0x10BC JUMP JUMPDEST SWAP1 POP PUSH0 SUB PUSH2 0xB6C JUMPI PUSH1 0x40 MLOAD PUSH4 0xF8956529 PUSH1 0xE0 SHL DUP2 MSTORE PUSH1 0x4 ADD PUSH1 0x40 MLOAD DUP1 SWAP2 SUB SWAP1 REVERT JUMPDEST PUSH2 0x100 DUP8 DUP8 DUP4 DUP2 DUP2 LT PUSH2 0xB81 JUMPI PUSH2 0xB81 PUSH2 0x1083 JUMP JUMPDEST SWAP1 POP PUSH1 0x20 MUL DUP2 ADD SWAP1 PUSH2 0xB93 SWAP2 SWAP1 PUSH2 0x10BC JUMP JUMPDEST SWAP1 POP GT ISZERO PUSH2 0xBB4 JUMPI PUSH1 0x40 MLOAD PUSH4 0x1623655B PUSH1 0xE3 SHL DUP2 MSTORE PUSH1 0x4 ADD PUSH1 0x40 MLOAD DUP1 SWAP2 SUB SWAP1 REVERT JUMPDEST PUSH1 0x1 ADD PUSH2 0xB1F JUMP JUMPDEST POP PUSH1 0x1 DUP1 PUSH0 DUP3 DUP3 SLOAD PUSH2 0xBCE SWAP2 SWAP1 PUSH2 0x1097 JUMP JUMPDEST SWAP1 SWAP2 SSTORE POP POP PUSH1 0x1 SLOAD PUSH0 DUP2 DUP2 MSTORE PUSH1 0x20 DUP2 SWAP1 MSTORE PUSH1 0x40 SWAP1 KECCAK256 SWAP1 SWAP4 POP DUP1 PUSH2 0xBF2 DUP10 DUP12 DUP4 PUSH2 0x114B JUMP JUMPDEST POP PUSH1 0x2 DUP2 ADD DUP3 SWAP1 SSTORE PUSH1 0x3 DUP2 ADD DUP1 SLOAD PUSH1 0x1 PUSH1 0x1 PUSH1 0xA0 SHL SUB NOT AND CALLER OR SWAP1 SSTORE PUSH0 JUMPDEST DUP4 DUP2 LT ISZERO PUSH2 0xC68 JUMPI DUP2 PUSH1 0x1 ADD DUP9 DUP9 DUP4 DUP2 DUP2 LT PUSH2 0xC2E JUMPI PUSH2 0xC2E PUSH2 0x1083 JUMP JUMPDEST SWAP1 POP PUSH1 0x20 MUL DUP2 ADD SWAP1 PUSH2 0xC40 SWAP2 SWAP1 PUSH2 0x10BC JUMP JUMPDEST DUP3 SLOAD PUSH1 0x1 DUP2 ADD DUP5 SSTORE PUSH0 SWAP4 DUP5 MSTORE PUSH1 0x20 SWAP1 SWAP4 KECCAK256 SWAP1 SWAP3 ADD SWAP2 PUSH2 0xC5F SWAP2 DUP4 PUSH2 0x114B JUMP JUMPDEST POP PUSH1 0x1 ADD PUSH2 0xC10 JUMP JUMPDEST POP CALLER PUSH1 0x1 PUSH1 0x1 PUSH1 0xA0 SHL SUB AND DUP5 PUSH32 0x88254C40B22BCD11C729024058AAE8AEF86A429F9CD6FDA469B844B0FA084765 DUP12 DUP12 DUP12 DUP12 DUP9 PUSH1 0x40 MLOAD PUSH2 0xCAB SWAP6 SWAP5 SWAP4 SWAP3 SWAP2 SWAP1 PUSH2 0x122D JUMP JUMPDEST PUSH1 0x40 MLOAD DUP1 SWAP2 SUB SWAP1 LOG3 POP POP POP SWAP6 SWAP5 POP POP POP POP POP JUMP JUMPDEST PUSH0 PUSH1 0x20 DUP3 DUP5 SUB SLT ISZERO PUSH2 0xCCF JUMPI PUSH0 PUSH0 REVERT JUMPDEST POP CALLDATALOAD SWAP2 SWAP1 POP JUMP JUMPDEST PUSH0 DUP2 MLOAD DUP1 DUP5 MSTORE DUP1 PUSH1 0x20 DUP5 ADD PUSH1 0x20 DUP7 ADD MCOPY PUSH0 PUSH1 0x20 DUP3 DUP7 ADD ADD MSTORE PUSH1 0x20 PUSH1 0x1F NOT PUSH1 0x1F DUP4 ADD AND DUP6 ADD ADD SWAP2 POP POP SWAP3 SWAP2 POP POP JUMP JUMPDEST PUSH1 0xA0 DUP2 MSTORE PUSH0 PUSH2 0xD16 PUSH1 0xA0 DUP4 ADD DUP9 PUSH2 0xCD6 JUMP JUMPDEST DUP3 DUP2 SUB PUSH1 0x20 DUP5 ADD MSTORE DUP1 DUP8 MLOAD DUP1 DUP4 MSTORE PUSH1 0x20 DUP4 ADD SWAP2 POP PUSH1 0x20 DUP2 PUSH1 0x5 SHL DUP5 ADD ADD PUSH1 0x20 DUP11 ADD PUSH0 JUMPDEST DUP4 DUP2 LT ISZERO PUSH2 0xD6B JUMPI PUSH1 0x1F NOT DUP7 DUP5 SUB ADD DUP6 MSTORE PUSH2 0xD55 DUP4 DUP4 MLOAD PUSH2 0xCD6 JUMP JUMPDEST PUSH1 0x20 SWAP6 DUP7 ADD SWAP6 SWAP1 SWAP4 POP SWAP2 SWAP1 SWAP2 ADD SWAP1 PUSH1 0x1 ADD PUSH2 0xD39 JUMP JUMPDEST POP POP PUSH1 0x40 DUP7 ADD DUP10 SWAP1 MSTORE PUSH1 0x1 PUSH1 0x1 PUSH1 0xA0 SHL SUB DUP9 AND PUSH1 0x60 DUP8 ADD MSTORE SWAP4 POP PUSH2 0xD8E SWAP3 POP POP POP JUMP JUMPDEST DUP3 PUSH1 0x80 DUP4 ADD MSTORE SWAP7 SWAP6 POP POP POP POP POP POP JUMP JUMPDEST PUSH1 0x20 DUP1 DUP3 MSTORE DUP3 MLOAD DUP3 DUP3 ADD DUP2 SWAP1 MSTORE PUSH0 SWAP2 DUP5 ADD SWAP1 PUSH1 0x40 DUP5 ADD SWAP1 DUP4 JUMPDEST DUP2 DUP2 LT ISZERO PUSH2 0xDD5 JUMPI DUP4 MLOAD DUP4 MSTORE PUSH1 0x20 SWAP4 DUP5 ADD SWAP4 SWAP1 SWAP3 ADD SWAP2 PUSH1 0x1 ADD PUSH2 0xDB7 JUMP JUMPDEST POP SWAP1 SWAP6 SWAP5 POP POP POP POP POP JUMP JUMPDEST DUP5 DUP2 MSTORE PUSH1 0x80 PUSH1 0x20 DUP3 ADD MSTORE PUSH0 PUSH2 0xDF8 PUSH1 0x80 DUP4 ADD DUP7 PUSH2 0xCD6 JUMP JUMPDEST PUSH1 0x40 DUP4 ADD SWAP5 SWAP1 SWAP5 MSTORE POP SWAP1 ISZERO ISZERO PUSH1 0x60 SWAP1 SWAP2 ADD MSTORE SWAP3 SWAP2 POP POP JUMP JUMPDEST PUSH0 PUSH0 PUSH1 0x40 DUP4 DUP6 SUB SLT ISZERO PUSH2 0xE21 JUMPI PUSH0 PUSH0 REVERT JUMPDEST DUP3 CALLDATALOAD SWAP2 POP PUSH1 0x20 DUP4 ADD CALLDATALOAD PUSH1 0x1 PUSH1 0x1 PUSH1 0xA0 SHL SUB DUP2 AND DUP2 EQ PUSH2 0xE3E JUMPI PUSH0 PUSH0 REVERT JUMPDEST DUP1 SWAP2 POP POP SWAP3 POP SWAP3 SWAP1 POP JUMP JUMPDEST PUSH0 PUSH0 PUSH1 0x40 DUP4 DUP6 SUB SLT ISZERO PUSH2 0xE5A JUMPI PUSH0 PUSH0 REVERT JUMPDEST POP POP DUP1 CALLDATALOAD SWAP3 PUSH1 0x20 SWAP1 SWAP2 ADD CALLDATALOAD SWAP2 POP JUMP JUMPDEST PUSH0 PUSH0 DUP4 PUSH1 0x1F DUP5 ADD SLT PUSH2 0xE79 JUMPI PUSH0 PUSH0 REVERT JUMPDEST POP DUP2 CALLDATALOAD PUSH8 0xFFFFFFFFFFFFFFFF DUP2 GT ISZERO PUSH2 0xE90 JUMPI PUSH0 PUSH0 REVERT JUMPDEST PUSH1 0x20 DUP4 ADD SWAP2 POP DUP4 PUSH1 0x20 DUP3 PUSH1 0x5 SHL DUP6 ADD ADD GT ISZERO PUSH2 0xEAA JUMPI PUSH0 PUSH0 REVERT JUMPDEST SWAP3 POP SWAP3 SWAP1 POP JUMP JUMPDEST PUSH0 PUSH0 PUSH0 PUSH0 PUSH0 PUSH1 0x60 DUP7 DUP9 SUB SLT ISZERO PUSH2 0xEC5 JUMPI PUSH0 PUSH0 REVERT JUMPDEST DUP6 CALLDATALOAD PUSH8 0xFFFFFFFFFFFFFFFF DUP2 GT ISZERO PUSH2 0xEDB JUMPI PUSH0 PUSH0 REVERT JUMPDEST DUP7 ADD PUSH1 0x1F DUP2 ADD DUP9 SGT PUSH2 0xEEB JUMPI PUSH0 PUSH0 REVERT JUMPDEST DUP1 CALLDATALOAD PUSH8 0xFFFFFFFFFFFFFFFF DUP2 GT ISZERO PUSH2 0xF01 JUMPI PUSH0 PUSH0 REVERT JUMPDEST DUP9 PUSH1 0x20 DUP3 DUP5 ADD ADD GT ISZERO PUSH2 0xF12 JUMPI PUSH0 PUSH0 REVERT JUMPDEST PUSH1 0x20 SWAP2 DUP3 ADD SWAP7 POP SWAP5 POP DUP7 ADD CALLDATALOAD PUSH8 0xFFFFFFFFFFFFFFFF DUP2 GT ISZERO PUSH2 0xF32 JUMPI PUSH0 PUSH0 REVERT JUMPDEST PUSH2 0xF3E DUP9 DUP3 DUP10 ADD PUSH2 0xE69 JUMP JUMPDEST SWAP7 SWAP10 SWAP6 SWAP9 POP SWAP7 PUSH1 0x40 ADD CALLDATALOAD SWAP5 SWAP4 POP POP POP POP JUMP JUMPDEST PUSH4 0x4E487B71 PUSH1 0xE0 SHL PUSH0 MSTORE PUSH1 0x41 PUSH1 0x4 MSTORE PUSH1 0x24 PUSH0 REVERT JUMPDEST DUP1 MLOAD DUP1 ISZERO ISZERO DUP2 EQ PUSH2 0xF73 JUMPI PUSH0 PUSH0 REVERT JUMPDEST SWAP2 SWAP1 POP JUMP JUMPDEST PUSH0 PUSH0 PUSH0 PUSH0 PUSH1 0x80 DUP6 DUP8 SUB SLT ISZERO PUSH2 0xF8B JUMPI PUSH0 PUSH0 REVERT JUMPDEST DUP5 MLOAD PUSH1 0x20 DUP7 ADD MLOAD SWAP1 SWAP5 POP PUSH8 0xFFFFFFFFFFFFFFFF DUP2 GT ISZERO PUSH2 0xFA9 JUMPI PUSH0 PUSH0 REVERT JUMPDEST DUP6 ADD PUSH1 0x1F DUP2 ADD DUP8 SGT PUSH2 0xFB9 JUMPI PUSH0 PUSH0 REVERT JUMPDEST DUP1 MLOAD PUSH8 0xFFFFFFFFFFFFFFFF DUP2 GT ISZERO PUSH2 0xFD3 JUMPI PUSH2 0xFD3 PUSH2 0xF50 JUMP JUMPDEST PUSH1 0x40 MLOAD PUSH1 0x1F DUP3 ADD PUSH1 0x1F NOT SWAP1 DUP2 AND PUSH1 0x3F ADD AND DUP2 ADD PUSH8 0xFFFFFFFFFFFFFFFF DUP2 GT DUP3 DUP3 LT OR ISZERO PUSH2 0x1002 JUMPI PUSH2 0x1002 PUSH2 0xF50 JUMP JUMPDEST PUSH1 0x40 MSTORE DUP2 DUP2 MSTORE DUP3 DUP3 ADD PUSH1 0x20 ADD DUP10 LT ISZERO PUSH2 0x1019 JUMPI PUSH0 PUSH0 REVERT JUMPDEST DUP2 PUSH1 0x20 DUP5 ADD PUSH1 0x20 DUP4 ADD MCOPY PUSH0 SWAP2 DUP2 ADD PUSH1 0x20 ADD SWAP2 SWAP1 SWAP2 MSTORE PUSH1 0x40 DUP8 ADD MLOAD SWAP1 SWAP5 POP SWAP3 POP PUSH2 0x1046 SWAP1 POP PUSH1 0x60 DUP7 ADD PUSH2 0xF64 JUMP JUMPDEST SWAP1 POP SWAP3 SWAP6 SWAP2 SWAP5 POP SWAP3 POP JUMP JUMPDEST PUSH1 0x1 DUP2 DUP2 SHR SWAP1 DUP3 AND DUP1 PUSH2 0x1065 JUMPI PUSH1 0x7F DUP3 AND SWAP2 POP JUMPDEST PUSH1 0x20 DUP3 LT DUP2 SUB PUSH2 0x32B JUMPI PUSH4 0x4E487B71 PUSH1 0xE0 SHL PUSH0 MSTORE PUSH1 0x22 PUSH1 0x4 MSTORE PUSH1 0x24 PUSH0 REVERT JUMPDEST PUSH4 0x4E487B71 PUSH1 0xE0 SHL PUSH0 MSTORE PUSH1 0x32 PUSH1 0x4 MSTORE PUSH1 0x24 PUSH0 REVERT JUMPDEST DUP1 DUP3 ADD DUP1 DUP3 GT ISZERO PUSH2 0x10B6 JUMPI PUSH4 0x4E487B71 PUSH1 0xE0 SHL PUSH0 MSTORE PUSH1 0x11 PUSH1 0x4 MSTORE PUSH1 0x24 PUSH0 REVERT JUMPDEST SWAP3 SWAP2 POP POP JUMP JUMPDEST PUSH0 PUSH0 DUP4 CALLDATALOAD PUSH1 0x1E NOT DUP5 CALLDATASIZE SUB ADD DUP2 SLT PUSH2 0x10D1 JUMPI PUSH0 PUSH0 REVERT JUMPDEST DUP4 ADD DUP1 CALLDATALOAD SWAP2 POP PUSH8 0xFFFFFFFFFFFFFFFF DUP3 GT ISZERO PUSH2 0x10EB JUMPI PUSH0 PUSH0 REVERT JUMPDEST PUSH1 0x20 ADD SWAP2 POP CALLDATASIZE DUP2 SWAP1 SUB DUP3 SGT ISZERO PUSH2 0xEAA JUMPI PUSH0 PUSH0 REVERT JUMPDEST PUSH1 0x1F DUP3 GT ISZERO PUSH2 0x1146 JUMPI DUP1 PUSH0 MSTORE PUSH1 0x20 PUSH0 KECCAK256 PUSH1 0x1F DUP5 ADD PUSH1 0x5 SHR DUP2 ADD PUSH1 0x20 DUP6 LT ISZERO PUSH2 0x1124 JUMPI POP DUP1 JUMPDEST PUSH1 0x1F DUP5 ADD PUSH1 0x5 SHR DUP3 ADD SWAP2 POP JUMPDEST DUP2 DUP2 LT ISZERO PUSH2 0x1143 JUMPI PUSH0 DUP2 SSTORE PUSH1 0x1 ADD PUSH2 0x1130 JUMP JUMPDEST POP POP JUMPDEST POP POP POP JUMP JUMPDEST PUSH8 0xFFFFFFFFFFFFFFFF DUP4 GT ISZERO PUSH2 0x1163 JUMPI PUSH2 0x1163 PUSH2 0xF50 JUMP JUMPDEST PUSH2 0x1177 DUP4 PUSH2 0x1171 DUP4 SLOAD PUSH2 0x1051 JUMP JUMPDEST DUP4 PUSH2 0x10FF JUMP JUMPDEST PUSH0 PUSH1 0x1F DUP5 GT PUSH1 0x1 DUP2 EQ PUSH2 0x11A8 JUMPI PUSH0 DUP6 ISZERO PUSH2 0x1191 JUMPI POP DUP4 DUP3 ADD CALLDATALOAD JUMPDEST PUSH0 NOT PUSH1 0x3 DUP8 SWAP1 SHL SHR NOT AND PUSH1 0x1 DUP7 SWAP1 SHL OR DUP4 SSTORE PUSH2 0x1143 JUMP JUMPDEST PUSH0 DUP4 DUP2 MSTORE PUSH1 0x20 DUP2 KECCAK256 PUSH1 0x1F NOT DUP8 AND SWAP2 JUMPDEST DUP3 DUP2 LT ISZERO PUSH2 0x11D7 JUMPI DUP7 DUP6 ADD CALLDATALOAD DUP3 SSTORE PUSH1 0x20 SWAP5 DUP6 ADD SWAP5 PUSH1 0x1 SWAP1 SWAP3 ADD SWAP2 ADD PUSH2 0x11B7 JUMP JUMPDEST POP DUP7 DUP3 LT ISZERO PUSH2 0x11F3 JUMPI PUSH0 NOT PUSH1 0xF8 DUP9 PUSH1 0x3 SHL AND SHR NOT DUP5 DUP8 ADD CALLDATALOAD AND DUP2 SSTORE JUMPDEST POP POP PUSH1 0x1 DUP6 PUSH1 0x1 SHL ADD DUP4 SSTORE POP POP POP POP POP JUMP JUMPDEST DUP2 DUP4 MSTORE DUP2 DUP2 PUSH1 0x20 DUP6 ADD CALLDATACOPY POP PUSH0 DUP3 DUP3 ADD PUSH1 0x20 SWAP1 DUP2 ADD SWAP2 SWAP1 SWAP2 MSTORE PUSH1 0x1F SWAP1 SWAP2 ADD PUSH1 0x1F NOT AND SWAP1 SWAP2 ADD ADD SWAP1 JUMP JUMPDEST PUSH1 0x60 DUP2 MSTORE PUSH0 PUSH2 0x1240 PUSH1 0x60 DUP4 ADD DUP8 DUP10 PUSH2 0x1205 JUMP JUMPDEST DUP3 DUP2 SUB PUSH1 0x20 DUP5 ADD MSTORE DUP1 DUP6 DUP3 MSTORE PUSH1 0x20 DUP3 ADD SWAP1 POP PUSH1 0x20 DUP7 PUSH1 0x5 SHL DUP4 ADD ADD DUP8 PUSH0 PUSH1 0x1E NOT DUP11 CALLDATASIZE SUB ADD JUMPDEST DUP10 DUP3 LT ISZERO PUSH2 0x12D3 JUMPI DUP6 DUP5 SUB PUSH1 0x1F NOT ADD DUP6 MSTORE DUP3 CALLDATALOAD DUP2 DUP2 SLT PUSH2 0x1283 JUMPI PUSH0 PUSH0 REVERT JUMPDEST DUP12 ADD PUSH1 0x20 DUP2 ADD SWAP1 CALLDATALOAD PUSH8 0xFFFFFFFFFFFFFFFF DUP2 GT ISZERO PUSH2 0x129F JUMPI PUSH0 PUSH0 REVERT JUMPDEST DUP1 CALLDATASIZE SUB DUP3 SGT ISZERO PUSH2 0x12AD JUMPI PUSH0 PUSH0 REVERT JUMPDEST PUSH2 0x12B8 DUP7 DUP3 DUP5 PUSH2 0x1205 JUMP JUMPDEST SWAP6 POP POP POP PUSH1 0x20 DUP4 ADD SWAP3 POP PUSH1 0x20 DUP6 ADD SWAP5 POP PUSH1 0x1 DUP3 ADD SWAP2 POP PUSH2 0x1265 JUMP JUMPDEST POP POP POP DUP1 SWAP4 POP POP POP POP DUP3 PUSH1 0x40 DUP4 ADD MSTORE SWAP7 SWAP6 POP POP POP POP POP POP JUMP INVALID LOG2 PUSH5 0x6970667358 0x22 SLT KECCAK256 STATICCALL 0xAB AND 0xD4 PC EXTCODEHASH SMOD 0xB0 0xCA 0xD5 MSTORE INVALID 0x2C BALANCE 0xE0 SWAP13 TSTORE DUP11 SWAP14 0xB7 0xAE 0xBB PUSH17 0x451B143563016521664736F6C63430008 SHR STOP CALLER "},"methodIdentifiers":{"MAX_OPTIONS()":"0da183d6","MAX_STRING_LENGTH()":"34ccc5ea","createPoll(string,string[],uint256)":"f8c860f4","declareWinner(uint256)":"00c2943c","getAllVoteCounts(uint256)":"2a287d7f","getPoll(uint256)":"1a8cbcaa","getVoteChoice(uint256,address)":"7f318a5f","getVoteCount(uint256,uint256)":"de2e19a0","getWinner(uint256)":"4129b2c9","hasAddressVoted(uint256,address)":"736faeec","isVotingOpen(uint256)":"074dbaa6","pollCount()":"9207891d","vote(uint256,uint256)":"b384abef"}}}}}