{
  "_format": "hh3-artifact-1",
  "contractName": "PollingSystem",
  "sourceName": "contracts/PollingSystem.sol",
  "abi": [
    {
      "inputs": [
        {
          "internalType": "uint256",
          "name": "pollId",
          "type": "uint256"
        },
        {
          "internalType": "address",
          "name": "voter",
          "type": "address"
        }
      ],
      "name": "AlreadyVoted",
      "type": "error"
    },
    {
      "inputs": [],
      "name": "DeadlineNotInFuture",
      "type": "error"
    },
    {
      "inputs": [],
      "name": "EmptyOptionString",
      "type": "error"
    },
    {
      "inputs": [],
      "name": "EmptyTitle",
      "type": "error"
    },
    {
      "inputs": [
        {
          "internalType": "uint256",
          "name": "pollId",
          "type": "uint256"
        },
        {
          "internalType": "uint256",
          "name": "optionIndex",
          "type": "uint256"
        },
        {
          "internalType": "uint256",
          "name": "optionCount",
          "type": "uint256"
        }
      ],
      "name": "InvalidOptionIndex",
      "type": "error"
    },
    {
      "inputs": [],
      "name": "InvalidOptionsCount",
      "type": "error"
    },
    {
      "inputs": [
        {
          "internalType": "uint256",
          "name": "pollId",
          "type": "uint256"
        }
      ],
      "name": "NoVotesCast",
      "type": "error"
    },
    {
      "inputs": [
        {
          "internalType": "uint256",
          "name": "pollId",
          "type": "uint256"
        }
      ],
      "name": "PollDoesNotExist",
      "type": "error"
    },
    {
      "inputs": [],
      "name": "StringTooLong",
      "type": "error"
    },
    {
      "inputs": [],
      "name": "TooManyOptions",
      "type": "error"
    },
    {
      "inputs": [
        {
          "internalType": "uint256",
          "name": "pollId",
          "type": "uint256"
        },
        {
          "internalType": "uint256",
          "name": "deadline",
          "type": "uint256"
        },
        {
          "internalType": "uint256",
          "name": "nowTs",
          "type": "uint256"
        }
      ],
      "name": "VotingClosed",
      "type": "error"
    },
    {
      "inputs": [
        {
          "internalType": "uint256",
          "name": "pollId",
          "type": "uint256"
        },
        {
          "internalType": "uint256",
          "name": "deadline",
          "type": "uint256"
        },
        {
          "internalType": "uint256",
          "name": "nowTs",
          "type": "uint256"
        }
      ],
      "name": "VotingStillOpen",
      "type": "error"
    },
    {
      "anonymous": false,
      "inputs": [
        {
          "indexed": true,
          "internalType": "uint256",
          "name": "pollId",
          "type": "uint256"
        },
        {
          "indexed": true,
          "internalType": "address",
          "name": "creator",
          "type": "address"
        },
        {
          "indexed": false,
          "internalType": "string",
          "name": "title",
          "type": "string"
        },
        {
          "indexed": false,
          "internalType": "string[]",
          "name": "options",
          "type": "string[]"
        },
        {
          "indexed": false,
          "internalType": "uint256",
          "name": "deadline",
          "type": "uint256"
        }
      ],
      "name": "PollCreated",
      "type": "event"
    },
    {
      "anonymous": false,
      "inputs": [
        {
          "indexed": true,
          "internalType": "uint256",
          "name": "pollId",
          "type": "uint256"
        },
        {
          "indexed": true,
          "internalType": "address",
          "name": "voter",
          "type": "address"
        },
        {
          "indexed": true,
          "internalType": "uint256",
          "name": "optionIndex",
          "type": "uint256"
        }
      ],
      "name": "VoteCast",
      "type": "event"
    },
    {
      "anonymous": false,
      "inputs": [
        {
          "indexed": true,
          "internalType": "uint256",
          "name": "pollId",
          "type": "uint256"
        },
        {
          "indexed": false,
          "internalType": "uint256",
          "name": "winningOptionIndex",
          "type": "uint256"
        },
        {
          "indexed": false,
          "internalType": "string",
          "name": "winningOption",
          "type": "string"
        },
        {
          "indexed": false,
          "internalType": "uint256",
          "name": "winningVoteCount",
          "type": "uint256"
        },
        {
          "indexed": false,
          "internalType": "bool",
          "name": "isTie",
          "type": "bool"
        }
      ],
      "name": "WinnerDeclared",
      "type": "event"
    },
    {
      "inputs": [],
      "name": "MAX_OPTIONS",
      "outputs": [
        {
          "internalType": "uint256",
          "name": "",
          "type": "uint256"
        }
      ],
      "stateMutability": "view",
      "type": "function"
    },
    {
      "inputs": [],
      "name": "MAX_STRING_LENGTH",
      "outputs": [
        {
          "internalType": "uint256",
          "name": "",
          "type": "uint256"
        }
      ],
      "stateMutability": "view",
      "type": "function"
    },
    {
      "inputs": [
        {
          "internalType": "string",
          "name": "title",
          "type": "string"
        },
        {
          "internalType": "string[]",
          "name": "options",
          "type": "string[]"
        },
        {
          "internalType": "uint256",
          "name": "votingDurationSeconds",
          "type": "uint256"
        }
      ],
      "name": "createPoll",
      "outputs": [
        {
          "internalType": "uint256",
          "name": "pollId",
          "type": "uint256"
        }
      ],
      "stateMutability": "nonpayable",
      "type": "function"
    },
    {
      "inputs": [
        {
          "internalType": "uint256",
          "name": "pollId",
          "type": "uint256"
        }
      ],
      "name": "declareWinner",
      "outputs": [],
      "stateMutability": "nonpayable",
      "type": "function"
    },
    {
      "inputs": [
        {
          "internalType": "uint256",
          "name": "pollId",
          "type": "uint256"
        }
      ],
      "name": "getAllVoteCounts",
      "outputs": [
        {
          "internalType": "uint256[]",
          "name": "counts",
          "type": "uint256[]"
        }
      ],
      "stateMutability": "view",
      "type": "function"
    },
    {
      "inputs": [
        {
          "internalType": "uint256",
          "name": "pollId",
          "type": "uint256"
        }
      ],
      "name": "getPoll",
      "outputs": [
        {
          "internalType": "string",
          "name": "title",
          "type": "string"
        },
        {
          "internalType": "string[]",
          "name": "options",
          "type": "string[]"
        },
        {
          "internalType": "uint256",
          "name": "deadline",
          "type": "uint256"
        },
        {
          "internalType": "address",
          "name": "creator",
          "type": "address"
        },
        {
          "internalType": "uint256",
          "name": "totalVotes",
          "type": "uint256"
        }
      ],
      "stateMutability": "view",
      "type": "function"
    },
    {
      "inputs": [
        {
          "internalType": "uint256",
          "name": "pollId",
          "type": "uint256"
        },
        {
          "internalType": "address",
          "name": "voter",
          "type": "address"
        }
      ],
      "name": "getVoteChoice",
      "outputs": [
        {
          "internalType": "uint256",
          "name": "optionIndex",
          "type": "uint256"
        }
      ],
      "stateMutability": "view",
      "type": "function"
    },
    {
      "inputs": [
        {
          "internalType": "uint256",
          "name": "pollId",
          "type": "uint256"
        },
        {
          "internalType": "uint256",
          "name": "optionIndex",
          "type": "uint256"
        }
      ],
      "name": "getVoteCount",
      "outputs": [
        {
          "internalType": "uint256",
          "name": "voteCount",
          "type": "uint256"
        }
      ],
      "stateMutability": "view",
      "type": "function"
    },
    {
      "inputs": [
        {
          "internalType": "uint256",
          "name": "pollId",
          "type": "uint256"
        }
      ],
      "name": "getWinner",
      "outputs": [
        {
          "internalType": "uint256",
          "name": "winningOptionIndex",
          "type": "uint256"
        },
        {
          "internalType": "string",
          "name": "winningOption",
          "type": "string"
        },
        {
          "internalType": "uint256",
          "name": "winningVoteCount",
          "type": "uint256"
        },
        {
          "internalType": "bool",
          "name": "isTie",
          "type": "bool"
        }
      ],
      "stateMutability": "view",
      "type": "function"
    },
    {
      "inputs": [
        {
          "internalType": "uint256",
          "name": "pollId",
          "type": "uint256"
        },
        {
          "internalType": "address",
          "name": "voter",
          "type": "address"
        }
      ],
      "name": "hasAddressVoted",
      "outputs": [
        {
          "internalType": "bool",
          "name": "voted",
          "type": "bool"
        }
      ],
      "stateMutability": "view",
      "type": "function"
    },
    {
      "inputs": [
        {
          "internalType": "uint256",
          "name": "pollId",
          "type": "uint256"
        }
      ],
      "name": "isVotingOpen",
      "outputs": [
        {
          "internalType": "bool",
          "name": "open",
          "type": "bool"
        }
      ],
      "stateMutability": "view",
      "type": "function"
    },
    {
      "inputs": [],
      "name": "pollCount",
      "outputs": [
        {
          "internalType": "uint256",
          "name": "",
          "type": "uint256"
        }
      ],
      "stateMutability": "view",
      "type": "function"
    },
    {
      "inputs": [
        {
          "internalType": "uint256",
          "name": "pollId",
          "type": "uint256"
        },
        {
          "internalType": "uint256",
          "name": "optionIndex",
          "type": "uint256"
        }
      ],
      "name": "vote",
      "outputs": [],
      "stateMutability": "nonpayable",
      "type": "function"
    }
  ],
  "bytecode": "0x6080604052348015600e575f5ffd5b506113228061001c5f395ff3fe608060405234801561000f575f5ffd5b50600436106100ca575f3560e01c80634129b2c9116100885780639207891d116100635780639207891d146101b7578063b384abef146101c0578063de2e19a0146101d3578063f8c860f4146101e6575f5ffd5b80634129b2c91461016e578063736faeec146101915780637f318a5f146101a4575f5ffd5b8062c2943c146100ce578063074dbaa6146100e35780630da183d61461010b5780631a8cbcaa146101215780632a287d7f1461014557806334ccc5ea14610165575b5f5ffd5b6100e16100dc366004610cbf565b6101f9565b005b6100f66100f1366004610cbf565b6102e4565b60405190151581526020015b60405180910390f35b610113603281565b604051908152602001610102565b61013461012f366004610cbf565b610331565b604051610102959493929190610d04565b610158610153366004610cbf565b610506565b6040516101029190610d9e565b61011361010081565b61018161017c366004610cbf565b6105d9565b6040516101029493929190610de0565b6100f661019f366004610e10565b610792565b6101136101b2366004610e10565b6107f1565b61011360015481565b6100e16101ce366004610e49565b61084d565b6101136101e1366004610e49565b6109d8565b6101136101f4366004610eb1565b610a67565b80801580610208575060015481115b1561022e5760405163a86ecdd560e01b8152600481018290526024015b60405180910390fd5b604051634129b2c960e01b8152600481018390525f908190819081903090634129b2c9906024015f60405180830381865afa15801561026f573d5f5f3e3d5ffd5b505050506040513d5f823e601f3d908101601f191682016040526102969190810190610f78565b9350935093509350857f9dee034180951cc51fdd0fa82f440301d67533ee056ba3465ff37686301d12eb858585856040516102d49493929190610de0565b60405180910390a2505050505050565b5f818015806102f4575060015481115b156103155760405163a86ecdd560e01b815260048101829052602401610225565b5f83815260208190526040902060020154421091505b50919050565b6060805f808085801580610346575060015481115b156103675760405163a86ecdd560e01b815260048101829052602401610225565b5f87815260208190526040902060028101546003820154600483015483548493600185019390926001600160a01b039091169185906103a590611051565b80601f01602080910402602001604051908101604052809291908181526020018280546103d190611051565b801561041c5780601f106103f35761010080835404028352916020019161041c565b820191905f5260205f20905b8154815290600101906020018083116103ff57829003601f168201915b5050505050945083805480602002602001604051908101604052809291908181526020015f905b828210156104eb578382905f5260205f2001805461046090611051565b80601f016020809104026020016040519081016040528092919081815260200182805461048c90611051565b80156104d75780601f106104ae576101008083540402835291602001916104d7565b820191905f5260205f20905b8154815290600101906020018083116104ba57829003601f168201915b505050505081526020019060010190610443565b50505050935096509650965096509650505091939590929450565b606081801580610517575060015481115b156105385760405163a86ecdd560e01b815260048101829052602401610225565b5f83815260208190526040902060018101548067ffffffffffffffff81111561056357610563610f50565b60405190808252806020026020018201604052801561058c578160200160208202803683370190505b5093505f5b818110156105d0575f81815260058401602052604090205485518690839081106105bd576105bd611083565b6020908102919091010152600101610591565b50505050919050565b5f60608180848015806105ed575060015481115b1561060e5760405163a86ecdd560e01b815260048101829052602401610225565b5f8681526020819052604090206002810154421015610656576002810154604051633cc0fd5960e01b8152600481018990526024810191909152426044820152606401610225565b80600401545f0361067d5760405163793ff7a960e01b815260048101889052602401610225565b60018101545f8080805b848110156106d6575f818152600587016020526040902054848111156106b5578094508193505f92506106cd565b84811480156106c357505f81115b156106cd57600192505b50600101610687565b508199508460010182815481106106ef576106ef611083565b905f5260205f2001805461070290611051565b80601f016020809104026020016040519081016040528092919081815260200182805461072e90611051565b80156107795780601f1061075057610100808354040283529160200191610779565b820191905f5260205f20905b81548152906001019060200180831161075c57829003601f168201915b509d9f939e50959c50929a509098505050505050505050565b5f828015806107a2575060015481115b156107c35760405163a86ecdd560e01b815260048101829052602401610225565b50505f918252602082815260408084206001600160a01b039390931684526006909201905290205460ff1690565b5f82801580610801575060015481115b156108225760405163a86ecdd560e01b815260048101829052602401610225565b50505f918252602082815260408084206001600160a01b039390931684526007909201905290205490565b8180158061085c575060015481115b1561087d5760405163a86ecdd560e01b815260048101829052602401610225565b5f838152602081905260409020600281015442106108c4576002810154604051633e52f83560e01b8152600481018690526024810191909152426044820152606401610225565b335f90815260068201602052604090205460ff16156108ff576040516304f9da6360e01b815260048101859052336024820152604401610225565b6001810154831061093a576001810154604051633feeb02560e11b815260048101869052602481018590526044810191909152606401610225565b335f9081526006820160209081526040808320805460ff19166001908117909155600785018352818420879055868452600585019092528220805491929091610984908490611097565b925050819055506001816004015f82825461099f9190611097565b90915550506040518390339086907f2acce567deca3aabf56327adbb4524bd5318936eaefa69e3a5208ffda0cfec09905f90a450505050565b5f828015806109e8575060015481115b15610a095760405163a86ecdd560e01b815260048101829052602401610225565b5f84815260208190526040902060018101548410610a51576001810154604051633feeb02560e11b815260048101879052602481018690526044810191909152606401610225565b5f93845260050160205250506040902054919050565b5f848103610a88576040516352ddcdef60e11b815260040160405180910390fd5b610100851115610aab57604051631623655b60e31b815260040160405180910390fd5b826002811015610ace5760405163447074b560e01b815260040160405180910390fd5b6032811115610af057604051630de5482160e11b815260040160405180910390fd5b825f03610b1057604051639e8ed6ff60e01b815260040160405180910390fd5b5f610b1b8442611097565b90505f5b82811015610bbc57868682818110610b3957610b39611083565b9050602002810190610b4b91906110bc565b90505f03610b6c5760405163f895652960e01b815260040160405180910390fd5b610100878783818110610b8157610b81611083565b9050602002810190610b9391906110bc565b90501115610bb457604051631623655b60e31b815260040160405180910390fd5b600101610b1f565b506001805f828254610bce9190611097565b90915550506001545f81815260208190526040902090935080610bf2898b8361114b565b50600281018290556003810180546001600160a01b031916331790555f5b83811015610c685781600101888883818110610c2e57610c2e611083565b9050602002810190610c4091906110bc565b82546001810184555f938452602090932090920191610c5f918361114b565b50600101610c10565b50336001600160a01b0316847f88254c40b22bcd11c729024058aae8aef86a429f9cd6fda469b844b0fa0847658b8b8b8b88604051610cab95949392919061122d565b60405180910390a350505095945050505050565b5f60208284031215610ccf575f5ffd5b5035919050565b5f81518084528060208401602086015e5f602082860101526020601f19601f83011685010191505092915050565b60a081525f610d1660a0830188610cd6565b828103602084015280875180835260208301915060208160051b84010160208a015f5b83811015610d6b57601f19868403018552610d55838351610cd6565b6020958601959093509190910190600101610d39565b5050604086018990526001600160a01b03881660608701529350610d8e92505050565b8260808301529695505050505050565b602080825282518282018190525f918401906040840190835b81811015610dd5578351835260209384019390920191600101610db7565b509095945050505050565b848152608060208201525f610df86080830186610cd6565b60408301949094525090151560609091015292915050565b5f5f60408385031215610e21575f5ffd5b8235915060208301356001600160a01b0381168114610e3e575f5ffd5b809150509250929050565b5f5f60408385031215610e5a575f5ffd5b50508035926020909101359150565b5f5f83601f840112610e79575f5ffd5b50813567ffffffffffffffff811115610e90575f5ffd5b6020830191508360208260051b8501011115610eaa575f5ffd5b9250929050565b5f5f5f5f5f60608688031215610ec5575f5ffd5b853567ffffffffffffffff811115610edb575f5ffd5b8601601f81018813610eeb575f5ffd5b803567ffffffffffffffff811115610f01575f5ffd5b886020828401011115610f12575f5ffd5b60209182019650945086013567ffffffffffffffff811115610f32575f5ffd5b610f3e88828901610e69565b96999598509660400135949350505050565b634e487b7160e01b5f52604160045260245ffd5b80518015158114610f73575f5ffd5b919050565b5f5f5f5f60808587031215610f8b575f5ffd5b8451602086015190945067ffffffffffffffff811115610fa9575f5ffd5b8501601f81018713610fb9575f5ffd5b805167ffffffffffffffff811115610fd357610fd3610f50565b604051601f8201601f19908116603f0116810167ffffffffffffffff8111828210171561100257611002610f50565b604052818152828201602001891015611019575f5ffd5b8160208401602083015e5f9181016020019190915260408701519094509250611046905060608601610f64565b905092959194509250565b600181811c9082168061106557607f821691505b60208210810361032b57634e487b7160e01b5f52602260045260245ffd5b634e487b7160e01b5f52603260045260245ffd5b808201808211156110b657634e487b7160e01b5f52601160045260245ffd5b92915050565b5f5f8335601e198436030181126110d1575f5ffd5b83018035915067ffffffffffffffff8211156110eb575f5ffd5b602001915036819003821315610eaa575f5ffd5b601f82111561114657805f5260205f20601f840160051c810160208510156111245750805b601f840160051c820191505b81811015611143575f8155600101611130565b50505b505050565b67ffffffffffffffff83111561116357611163610f50565b611177836111718354611051565b836110ff565b5f601f8411600181146111a8575f85156111915750838201355b5f19600387901b1c1916600186901b178355611143565b5f83815260208120601f198716915b828110156111d757868501358255602094850194600190920191016111b7565b50868210156111f3575f1960f88860031b161c19848701351681555b505060018560011b0183555050505050565b81835281816020850137505f828201602090810191909152601f909101601f19169091010190565b606081525f611240606083018789611205565b82810360208401528085825260208201905060208660051b830101875f601e198a3603015b898210156112d357858403601f190185528235818112611283575f5ffd5b8b0160208101903567ffffffffffffffff81111561129f575f5ffd5b8036038213156112ad575f5ffd5b6112b8868284611205565b95505050602083019250602085019450600182019150611265565b505050809350505050826040830152969550505050505056fea2646970667358221220faab16d4583f07b0cad552fe2c31e09c5d8a9db7aebb700451b143563016521664736f6c634300081c0033",
  "linkReferences": {},
  "deployedLinkReferences": {},
  "immutableReferences": {},
  "inputSourceName": "project/contracts/PollingSystem.sol",
  "buildInfoId": "solc-0_8_28-c018a2b1adbae619faf3710bc045977c9149352a"
}